:020000040000FA
:100000000C947F000C94A7000C94A7000C94A700FC
:100010000C94A7000C94A7000C94A7000C94A700C4
:100020000C946E0A0C94A7000C94A7000C94B209CF
:100030000C94A7000C94A7000C94A7000C94A700A4
:100040000C94F1070C94A7000C9461080C943B08E5
:100050000C94A7000C94A7000C94A7000C94A70084
:100060000C9493080C94A70049522052656365696B
:1000700076657220697320726561647900427574D7
:10008000746F6E2050726573736564004D4F444504
:100090002033004D4F44452032004D4F4445203120
:1000A0000000000000240027002A000000000025B6
:1000B0000028002B000000000800020100000304DB
:1000C00007000000000000000000000000230026E0
:1000D00000290004040404040404040202020202CD
:1000E00002030303030303010204081020408001FC
:1000F0000204081020010204081020006E0B1124D5
:100100001FBECFEFD8E0DEBFCDBF12E0A0E0B1E070
:10011000E8E3F4E302C005900D92A434B107D9F7E7
:1001200025E0A4E4B2E001C01D92A831B207E1F7D6
:1001300010E0CFE7D0E004C02197FE010E94221812
:10014000CE37D107C9F70E94080C0C941A1A0C94E8
:100150000000E0910705F0910805238534852817F4
:10016000390728F480910305816080930305089581
:100170000F931F93CF93DF93409111038091040558
:1001800010E0481708F068C0142F11700091100398
:10019000011153C0E0910705F0910805842F90E00C
:1001A000880F991FE80FF91F0384F485E02D2CEECA
:1001B0003FEF112311F024E130E0C0910E03D09104
:1001C0000F032C0F3D1FC90163E470E00E940E185D
:1001D000E617F70760F0C90168E270E00E940E18A8
:1001E0006F5F7F4F81E090E06E177F0710F52C0F57
:1001F0003D1FC90163E470E00E940E18E617F7077F
:1002000050F0C90168E270E00E940E186F5F7F4FE6
:100210006E177F0760F42C0F3D1FC90163E470E087
:100220000E940E18E617F707E8F41FEF15C082E0EA
:1002300090E090930D0380930C030F5F00931003E5
:1002400080910C0390910D030817190628F0109265
:1002500010034F5F40931103812FDF91CF911F91C6
:100260000F910895C90168E270E00E940E186F5F57
:100270007F4F6E177F07C8F283E090E0DACF8330BC
:1002800081F028F4813099F08230A9F00895873008
:10029000A9F08830C9F08430B1F4809180008F7D5E
:1002A00003C0809180008F7780938000089584B58B
:1002B0008F7784BD089584B58F7DFBCF8091B0008A
:1002C0008F778093B00008958091B0008F7DF9CF33
:1002D0001F93CF93DF93282F30E0F901EB54FF4FAA
:1002E0008491F901E951FF4FD491F901ED52FF4F8B
:1002F000C491CC23A9F0162F81110E943F01EC2F4D
:10030000F0E0EE0FFF1FE555FF4FA591B4918FB7B9
:10031000F894EC91111108C0D095DE23DC938FBFC7
:10032000DF91CF911F910895DE2BF8CFCF93DF930C
:1003300090E0FC01E951FF4F24918D529F4FFC0149
:1003400084918823C9F090E0880F991FFC01EF5534
:10035000FF4FA591B491FC01E555FF4FC591D49194
:1003600061110DC09FB7F8948C91209582238C93D6
:100370008881282328839FBFDF91CF910895623021
:1003800051F49FB7F8943C91822F809583238C93EE
:10039000E8812E2BEFCF8FB7F894EC912E2B2C9376
:1003A0008FBFEACF3FB7F89480910803909109037B
:1003B000A0910A03B0910B0326B5A89B05C02F3F5F
:1003C00019F00196A11DB11D3FBFBA2FA92F982F7B
:1003D0008827BC01CD01620F711D811D911D42E076
:1003E000660F771F881F991F4A95D1F708958F923E
:1003F0009F92AF92BF92CF92DF92EF92FF926B01EA
:100400007C010E94D2014B015C01C114D104E104C2
:10041000F104B9F00E94D201681979098A099B098F
:10042000683E73408105910580F321E0C21AD1082E
:10043000E108F10888EE880E83E0981EA11CB11C2B
:10044000E4CFFF90EF90DF90CF90BF90AF909F9060
:100450008F90089508950895AF92BF92CF92DF9242
:10046000EF92FF920F931F93CF93DF936C017B0169
:100470008B01040F151FEB015E01AE18BF08C017FA
:10048000D10759F06991D601ED91FC910190F0816D
:10049000E02DC6010995892B79F7C501DF91CF9130
:1004A0001F910F91FF90EF90DF90CF90BF90AF9092
:1004B0000895FC01538D448D252F30E0842F90E06A
:1004C000821B930B541710F0CF960895019708954F
:1004D000FC01918D828D981761F0A28DAE0FBF2F18
:1004E000B11D5D968C91928D9F5F9F73928F90E06E
:1004F00008958FEF9FEF0895FC01918D828D9817DD
:1005000031F0828DE80FF11D858D90E008958FEF19
:100510009FEF0895FC01918D228D892F90E0805CE2
:100520009F4F821B91098F739927089582E193E071
:100530000E948A0221E0892B09F420E0822F08958D
:1005400080E090E0892B29F00E94960281110C94A2
:1005500000000895FC01A48DA80FB92FB11DA35A66
:10056000BF4F2C91848D90E001968F739927848FD3
:10057000A689B7892C93A089B1898C9183708064F6
:100580008C93938D848D981306C00288F389E02D97
:1005900080818F7D80830895EF92FF920F931F9348
:1005A000CF93DF93EC0181E0888F9B8D8C8D981326
:1005B0001AC0E889F989808185FF15C09FB7F89432
:1005C000EE89FF896083E889F9898081837080647E
:1005D00080839FBF81E090E0DF91CF911F910F91C9
:1005E000FF90EF900895F62E0B8D10E00F5F1F4FD8
:1005F0000F731127E02E8C8D8E110CC00FB607FCE7
:10060000FACFE889F989808185FFF5CFCE010E9474
:10061000AA02F1CFEB8DEC0FFD2FF11DE35AFF4F36
:10062000F0829FB7F8940B8FEA89FB898081806202
:10063000CFCFCF93DF93EC01888D8823B9F0AA89BF
:10064000BB89E889F9898C9185FD03C0808186FD8D
:100650000DC00FB607FCF7CF8C9185FFF2CF8081DC
:1006600085FFEDCFCE010E94AA02E9CFDF91CF91A5
:100670000895089520918602260F3327331F2132D3
:100680003105ECF42091CF02FC0190E080E02430B1
:1006900069F082E00895A09186022191AC014A5947
:1006A0005D4FA40FB52FB11D2C930196861798F3BB
:1006B00080918602680F6093860280E0089581E051
:1006C00008951092CF0281E08093CE021092A90289
:1006D00061E082E10E94680161E083E10E946801BB
:1006E000E9EBF0E080818E7F808380818D7F808345
:1006F00088E48093B80085E48093BC000895CF938C
:10070000DF9391E0909365028823B9F0C091B8001F
:10071000D091BA008091BC008A7B8093BC0060E0DD
:1007200082E10E94680160E083E10E9468010E940A
:100730006103D093BA00C093B800DF91CF910895C0
:100740000895E091FE028091FD02E81730F4F0E098
:10075000EB5BFD4F808190E008958FEF9FEF089550
:100760009091FE028091FD022FEF3FEF981748F421
:10077000E92FF0E0EB5BFD4F208130E09F5F90932D
:10078000FE02C90108958091FD029091FE02891B2D
:10079000990B0895CF92DF92EF92FF920F931F93E0
:1007A000CF93DF937C01CB018A012091D5022223D4
:1007B00089F0EB016B01C40ED51ECC15DD0569F087
:1007C0006991D701ED91FC910190F081E02DC70175
:1007D0000995F3CF642F0E943A03C801DF91CF91AE
:1007E0001F910F91FF90EF90DF90CF900895CF93DE
:1007F000DF931F92CDB7DEB769832091D502222304
:10080000F9F02091FB02203258F021E030E0FC01A9
:100810003383228390E080E00F90DF91CF910895A1
:100820008091FC02E82FF0E0EA52FD4F998190831D
:100830008F5F8093FC028093FB0281E090E0ECCF1D
:1008400061E0CE0101960E943A03F7CFCF92DF928A
:10085000EF92FF920F931F93CF93DF93FC01C4811C
:1008600021E02093D502C093F6021092FC02109270
:10087000FB028385682B8FEA93E00E94F703D091F7
:10088000FB02D13208F092C00E94D2016B017C01C0
:100890008091CF02811165C082E08093CF0281E018
:1008A0008093CE028FEF8093CD021092CC02D09332
:1008B000CB02A6EDB2E0EBEAF2E080E0D81385C00F
:1008C0001092AA028091AA02CC0FC82BC093AA0250
:1008D0008091A902813009F07CC01092A9020E9487
:1008E000D2016B017C018091AA028093BB008091B0
:1008F000D1029091D202A091D302B091D402892B5F
:100900008A2B8B2B99F00E94D2010091D102109179
:10091000D2022091D3023091D4026C197D098E0944
:100920009F090617170728073907E0F18091BC00D7
:1009300083FDD9CF85EC8093BC000E94D2016B016E
:100940007C018091CF02823009F445C08091CD02B4
:100950008F3F61F18091CD02803241F18091CD02D3
:1009600025C08091D1029091D202A091D302B09182
:10097000D402892B8A2B8B2B09F48ACF0E94D201B7
:100980000091D1021091D2022091D3023091D40271
:100990006C197D098E099F09061717072807390763
:1009A00008F076CF8091D0020E947F031092FC0263
:1009B0001092FB021092D502DF91CF911F910F91FF
:1009C000FF90EF90DF90CF9008959D9191938F5F6E
:1009D00075CF85EEB0CF8091D1029091D202A091D7
:1009E000D302B091D402892B8A2B8B2B09F4A9CF87
:1009F0000E94D2010091D1021091D2022091D30223
:100A00003091D4026C197D098E099F0906171707CA
:100A10002807390708F095CFC5CF90E080E008950A
:100A2000FC019B0124513109C90163E470E00E947B
:100A30000E18E617F70758F0C90168E270E00E9447
:100A40000E186F5F7F4F81E06E177F0708F480E01C
:100A500008952F923F924F925F926F927F928F9262
:100A60009F92AF92BF92CF92DF92EF92FF920F933D
:100A70001F93CF93DF9300D000D000D0CDB7DEB767
:100A8000382E6D835A013C832B8348012E2C9A010A
:100A90002C5E3F4FC90163E470E00E940E188B0189
:100AA000C90168E270E00E940E189B012F5F3F4F62
:100AB0003A8329835D81452F50E0440F551F455FE0
:100AC0005F4F8091070590910805480F591F5E837D
:100AD0004D83412C512C32014394C12CD12C7601F1
:100AE0003320B9F18B819C81A816B906E1F4B401D9
:100AF000ED81FE81828193810E941005222011F1F7
:100B0000CC0CDD1CEE1CFF1C882311F06894C0F88F
:100B1000440C551C661C771C3A948D819E8104966A
:100B20009E838D83DDCFED81FE8120813181201771
:100B3000310730F081E049815A8142175307F0F6BE
:100B400080E0DCCF882321F3C428D528E628F728C5
:100B5000DFCFC092E904D092EA04E092EB04F09275
:100B6000EC0481E026960FB6F894DEBF0FBECDBF31
:100B7000DF91CF911F910F91FF90EF90DF90CF9079
:100B8000BF90AF909F908F907F906F905F904F90AD
:100B90003F902F900895EF920F931F93FC01862FA3
:100BA000642FEE24E3949785911101C0E12C018517
:100BB000128523853485478150850E9429051F9120
:100BC0000F91EF9008950F931F93CF93DF93EC0154
:100BD000E0910705F0910805058516852B813C817C
:100BE0002C5E3F4FC90163E470E00E940E180617A7
:100BF0001707A0F0C90168E270E00E940E186F5F4D
:100C00007F4F6017710750F06D817E8187859089D5
:100C1000DF91CF911F910F910C94100580E0DF912F
:100C2000CF911F910F9108958091DA04882319F0D4
:100C300060E00C9468012D980895882349F0809114
:100C4000DA04882319F061E00C9468012D9A089564
:100C50000C9414064F925F926F927F928F929F92A4
:100C6000AF92BF92CF92DF92EF92FF92CF93DF933A
:100C7000CDB7DEB72D970FB6F894DEBF0FBECDBF50
:100C80007C010E94D20169837A838B839C834B0110
:100C90005C011D86B0E0A0E09701AD01255231094D
:100CA000410951092D833E834F8358879701AD0138
:100CB000275031094109510929873A874B875C87B9
:100CC000F89461E08091DC040E9468018091DF0467
:100CD0009091E0048230910538F0880F991F880FB9
:100CE000991F05970197F1F760E08091DC040E945D
:100CF000680178943D85311107C08091DB04823012
:100D000019F481E00E941D068091DD049091DE04BB
:100D1000880E991EA11CB11CF8940E94D2012B01CF
:100D20003C016B0149815A81C41AD50AF12CE12C8E
:100D30008D819E81AF81B885C816D906EA06FB066B
:100D400034F08091DB04823011F40E94140629856E
:100D50003A854B855C85C216D306E406F506B4F0E9
:100D600078942D960FB6F894DEBF0FBECDBFDF91FD
:100D7000CF91FF90EF90DF90CF90BF90AF909F907A
:100D80008F907F906F905F904F90089531E03D87F6
:100D9000481459046A047B0408F4BFCF91CFCF9262
:100DA000DF92EF92FF928AE190E09093DE048093CD
:100DB000DD0485E090E09093E0048093DF0461E03F
:100DC0008091DC040E94960180E093E20E942A0652
:100DD0000E94D2016B017C0124E0C21AD108E10813
:100DE000F1080E94D2016C197D098E099F09603CAF
:100DF000784081059105A8F380E392E0FF90EF90A1
:100E0000DF90CF900C942A060F931F93CF938C0101
:100E1000C62F0E9426046C2F6460C8010E9426041D
:100E20006C2F6B7FC8010E94260483EC90E0019731
:100E3000F1F7CF911F910F9108950F931F93CF93C7
:100E4000DF938C01D62FC42F607F642B0E94040790
:100E500080E1D89FB00111246C2BC801DF91CF91A4
:100E60001F910F910C94040741E00E941D0781E03F
:100E700090E008950F931F93CF93DF938C01D0E000
:100E8000C0E0F801EC0FFD1F6491662341F082E1A0
:100E900093E00E94CC02892B11F02196F2CF42E020
:100EA00050E06BE272E082E193E00E942C028C0F32
:100EB0009D1FDF91CF911F910F910895FC018081BB
:100EC0009181009711F00C94C41808950F931F930B
:100ED000CF93DF93EC0188819981009759F02A81A3
:100EE0003B812617370730F081E0DF91CF911F91CA
:100EF0000F9108958B016F5F7F4F0E944D190097EE
:100F000059F0998388831B830A832C813D81232B8D
:100F100059F7FC011082E8CF80E0E7CFEF92FF9213
:100F20000F931F93CF93DF93EC017B018A01BA01EA
:100F30000E94660728813981811114C0211531056D
:100F400019F0C9010E94C418198218821D821C82DE
:100F50001B821A82CE01DF91CF911F910F91FF90DA
:100F6000EF9008951D830C83B701C9010E94131AE5
:100F7000F1CF85ED8093BC008091D1029091D20297
:100F8000A091D302B091D4020796A11DB11D23E018
:100F9000B695A795979587952A95D1F72091BC008E
:100FA00024FD03C01092CF0208954091D1025091C8
:100FB000D2026091D3027091D402452B462B472B6D
:100FC00069F30097A105B10541F02AE22A95F1F7EE
:100FD00000C00197A109B109E1CF8091D0020C9422
:100FE0007F031F920F920FB60F9211242F933F93FE
:100FF0008F939F93AF93BF938091040390910503C8
:10100000A0910603B09107033091030323E0230F5F
:101010002D3758F50196A11DB11D20930303809330
:10102000040390930503A0930603B09307038091F4
:10103000080390910903A0910A03B0910B03019654
:10104000A11DB11D8093080390930903A0930A0387
:10105000B0930B03BF91AF919F918F913F912F91CF
:101060000F900FBE0F901F90189526E8230F029641
:10107000A11DB11DD2CF1F920F920FB60F92112456
:101080002F933F934F935F936F937F938F939F9390
:10109000AF93BF93EF93FF9382E193E00E94AA0284
:1010A000FF91EF91BF91AF919F918F917F916F9140
:1010B0005F914F913F912F910F900FBE0F901F9016
:1010C00018951F920F920FB60F9211242F938F93A2
:1010D0009F93EF93FF93E0912203F091230380818C
:1010E000E0912803F091290382FD1BC0908180913B
:1010F0002B038F5F8F7320912C03821741F0E091B7
:101100002B03F0E0EE5EFC4F958F80932B03FF9155
:10111000EF919F918F912F910F900FBE0F901F9085
:1011200018958081F4CF1F920F920FB60F92112461
:101130002F933F934F935F936F937F938F939F93DF
:10114000AF93BF93EF93FF938091B900887F803670
:1011500009F44AC0F0F5883209F4A7C018F58031C7
:1011600009F49BC0B8F4882309F4F9C0883009F465
:1011700094C0FF91EF91BF91AF919F918F917F911B
:101180006F915F914F913F912F910F900FBE0F90F4
:101190001F901895883109F488C0803251F78093E8
:1011A000CD0214C0803409F49DC040F48033B9F3FB
:1011B0008833F9F68093CD0285ECB0C0803509F410
:1011C00085C0883509F496C0883499F60E94B9071D
:1011D000D0CF883909F48CC038F5883729F050F41D
:1011E000883611F0803729F683E08093CF02109281
:1011F000A80257C0883809F47BC0803919F08038BC
:1012000009F0B7CF8091A802803208F071C0E09158
:10121000A80281E08E0F8093A8028091BB00F0E0CD
:10122000E857FD4F80833DC0803B39F0E0F4803AC1
:1012300009F479C0883A09F09CCF84E08093CF020A
:101240001092870210928602E091F902F091FA0260
:1012500009958091860281110FC081E080938602FA
:101260001092660209C0803C09F4A6CF883C09F4BC
:10127000A3CF883B09F07DCFE091870281E08E0FFC
:1012800080938702F0E0EA59FD4F80818093BB0094
:10129000909187028091860229C08091AA02809352
:1012A000BB0085EC8093BC0064CF9091CC02809110
:1012B000CB02981758F5E091CC0281E08E0F809315
:1012C000CC02F0E0E555FD4F8081E9CFE091CC0202
:1012D00081E08E0F8093CC028091BB00F0E0E55559
:1012E000FD4F80839091CC028091CB029817C8F279
:1012F00085E8D8CFE091CC0281E08E0F8093CC02BC
:101300008091BB00F0E0E555FD4F80838091CE02D7
:1013100081115CCF81E08093A90284EA8093BC00B4
:101320001092CF0226CF85EC8093BC001092CF02A2
:101330008091A802803230F4E091A802F0E0E857F2
:10134000FD4F10826091A80270E0E091F702F091E9
:10135000F80288E892E009951092A8020ACF10924C
:10136000CD0234CF1F920F920FB60F9211242F93FC
:101370003F934F935F936F937F938F939F93AF931D
:10138000BF93CF93DF93EF93FF9380914402C0917B
:10139000DF03D0E087FF24C0109285001092840004
:1013A000809144028F5F8093440280914402082E12
:1013B000000C990B8C179D0724F4809144028C300B
:1013C000C4F18091840090918500049680349C49FA
:1013D00008F47AC08091840090918500049676C0CC
:1013E00080914402082E000C990B8C179D07C4F6BF
:1013F000E09144028E2FEE0F990BFC01EE0FFF1FC0
:10140000E80FF91FE554FC4F808186FFC9CFE091BA
:1014100044028E2FEE0F990BFC01EE0FFF1FE80F19
:10142000F91FE554FC4F808160E08F730E946801D2
:10143000B7CF2091840030918500E09144028E2F37
:10144000EE0F990BFC01EE0FFF1FE80FF91FE5549B
:10145000FC4F81819281820F931F9093890080932A
:101460008800E09144028E2FEE0F990BFC01EE0FE5
:10147000FF1FE80FF91FE554FC4F808186FF11C064
:10148000E09144028E2FEE0F990BFC01EE0FFF1F2F
:10149000E80FF91FE554FC4F808161E08F730E94D3
:1014A0006801FF91EF91DF91CF91BF91AF919F9133
:1014B0008F917F916F915F914F913F912F910F90FD
:1014C0000FBE0F901F90189580E49CE990938900BF
:1014D000809388008FEF80934402E3CF1F920F9296
:1014E0000FB60F9211242F933F934F935F936F93F7
:1014F0007F938F939F93AF93BF93CF93EF93FF937C
:10150000E091E203F091E303C0818091E403C823FA
:101510008091E5039091E603019649F08091E503FF
:101520009091E60301969093E6038093E503809102
:10153000E00381111DC0C1116EC08091E50390913F
:10154000E603813A910578F01092E9038091E50372
:101550009091E6039093EC038093EB0381E08093FA
:10156000EA038093E0031092E6031092E50353C070
:101570008091E0038130A9F4CC2309F44CC0E091C0
:10158000EA038E0F8093EA038091E5039091E603CE
:10159000F0E0EE0FFF1FE052FC4F9487838782E05C
:1015A000E0CF8091E003823009F04FC0C11122C02A
:1015B000E091EA0381E0E03768F08093E90383E09B
:1015C0008093E003E091E703F091E803309759F24C
:1015D0000995C9CF8E0F8093EA038091E50390911E
:1015E000E603F0E0EE0FFF1FE052FC4F9487838785
:1015F00081E0B7CF8091E5039091E603813A9105B0
:1016000050F083E08093E003E091E703F091E8037A
:10161000309709F009958091DB04813021F4C111E4
:1016200080E00E941D06FF91EF91CF91BF91AF9195
:101630009F918F917F916F915F914F913F912F91EA
:101640000F900FBE0F901F9018958091E00383308C
:1016500011F7C111E0CF87CFEF92FF920F931F9345
:10166000CF93DF93EC01F62F8A01790190E080E0BF
:1016700030E0E0E0DE01AE0FB11D2C91222341F0FD
:10168000320F2E9F800D911D11241C92FE1315C048
:10169000332399F0532F5695850F911D632F70E0DA
:1016A0000E940E18DE01A60FB11D3C93D8013C919B
:1016B00031110EC06C9390E080E0EF5FFE17D0F622
:1016C00081E0DF91CF911F910F91FF90EF900895EE
:1016D000D7013C91332371F380E0F3CF10921503CF
:1016E0001092140388EE93E0A0E0B0E0809316031C
:1016F00090931703A0931803B09319032FEF31E0D1
:10170000309313032093120325EC30E030931F0332
:1017100020931E0324EC30E0309321032093200318
:1017200020EC30E0309323032093220321EC30E0BF
:10173000309325032093240322EC30E030932703D9
:101740002093260326EC30E03093290320932803CE
:1017500010922B0310922C0310922D0310922E0343
:101760001092B2031092B1038093B3039093B40329
:10177000A093B503B093B60381E192E09093B003D8
:101780008093AF0380EE93E0909308058093070564
:101790001092E10381E08093E40389E290E090936A
:1017A000E3038093E20350981092DA041092DC0471
:1017B0008091DF038C3040F591E0980F9093DF0328
:1017C0008093D70490E0FC01EE0FFF1FE80FF91F94
:1017D000E554FC4F88EB9BE0928381831092CE040A
:1017E0001092CD0483E292E09093CC048093CB04DA
:1017F00087E28093CF0480E18093D40482E08093D9
:10180000D5041092D60408958FEF8093D704E6CFC5
:10181000CF93DF93CDB7DEB7C154D1090FB6F8949B
:10182000DEBF0FBECDBF789484B5826084BD84B521
:10183000816084BD85B5826085BD85B5816085BDCB
:1018400080916E00816080936E0010928100809183
:10185000810082608093810080918100816080930B
:101860008100809180008160809380008091B10030
:1018700084608093B1008091B00081608093B0005B
:1018800080917A00846080937A0080917A008260EF
:1018900080937A0080917A00816080937A008091B1
:1018A0007A00806880937A001092C10061E082E043
:1018B0000E94960162E087E00E9496016091010318
:1018C00082E00E9468018091D7048C3008F051C0FA
:1018D00061E089E00E9496018091D704282F30E0D2
:1018E000F901EE0FFF1FE20FF31FE554FC4F90814B
:1018F000907C996090831092D8041092D9042CE0C7
:10190000622F0E940218829FB001112430E020E073
:10191000AB01420F531FFA01EE0FFF1FE40FF51F3B
:10192000E554FC4F908196FD16C02F5F3F4F2C3041
:10193000310571F781110FC01092800082E0809311
:1019400081001092850010928400B19A80916F00FE
:10195000826080936F00E091D7048E2F90E0FC01AD
:10196000EE0FFF1FE80FF91FE554FC4F80818064E4
:1019700080831092FE021092FD021092FC021092DF
:10198000FB020E9461038AE292E09093FA02809344
:10199000F9028BE292E09093F8028093F7021092A2
:1019A000D0048091D504823018F098E09093D00450
:1019B0008093D30462E370E080E090E00E94F7013E
:1019C0006091D6048BEC94E00E94260468EE73E0EC
:1019D00080E090E00E94F70160E38BEC94E00E94CD
:1019E00004070BE416E4C8010197F1F760E38BEC00
:1019F00094E00E940407C8010197F1F760E38BECC3
:101A000094E00E94040783E592E00197F1F760E219
:101A10008BEC94E00E9404076091D004606240E087
:101A20008BEC94E00E941D0784E08093D10440E099
:101A30006CE08BEC94E00E941D0740E061E08BECD1
:101A400094E00E941D070BE31FE1C8010197F1F725
:101A500072E0F72EF092D20440E066E08BEC94E066
:101A60000E941D0740E062E08BEC94E00E941D079D
:101A7000C8010197F1F718E01093D60460E08BECF1
:101A800094E00E9426044DE050E06EE272E08BECA0
:101A900094E00E942C02E0912203F0912303F08253
:101AA000E0911E03F0911F031082E0912003F0915A
:101AB00021038FEC808310922A03E0912603F0919A
:101AC000270386E08083E0912403F0912503808141
:101AD00080618083E0912403F091250380818860F8
:101AE0008083E0912403F0912503808180688083C6
:101AF000E0912403F091250380818F7D80838BE02A
:101B00008093E1031093E40383E290E09093E30376
:101B10008093E20323981092DA048091DB048160C1
:101B20008093DB04259AF092B000F092B10084E635
:101B30008093B3008093B4001092B2008091E003D0
:101B4000833011F41092E00384E08093700088E603
:101B500090E00E943A079E012F5F3F4F69018091FC
:101B6000E003833009F01BC28091E903882309F464
:101B700060C080E480930305E0910705F0910805BB
:101B8000838594859093060580930505228520938F
:101B900004051092E2041092E1041092E6041092FF
:101BA000E5041092E4041092E3041092E904109208
:101BB000EA041092EB041092EC04109202051092C9
:101BC00001058091030586FDE4C1822F8F7B84305F
:101BD00009F0BEC085859685865891098C3591059A
:101BE00008F0B6C087859089243009F049C08197F4
:101BF000489708F0ADC0818992890897089708F046
:101C0000A7C081E08093030580910B0590910C059E
:101C10009093E4048093E30480910F059091100564
:101C20009093E6048093E5048091090590910A055C
:101C30009AC4109203058091E1049091E20490937C
:101C40000A05809309058091E5049091E604B0E0CF
:101C5000A0E080930F0590931005A0931105B09319
:101C600012058091E3049091E404B0E0A0E0809339
:101C70000B0590930C05A0930D05B0930E057CCF3A
:101C8000825491098F9708F063C043E060E28CEDC5
:101C900091E00E94CB05882309F45AC02091E90401
:101CA0009091EA046091EB048091EC04462F50E09F
:101CB0005093E6044093E504422F592F4E3E37E8F7
:101CC000530719F523E030E03093E2042093E10458
:101CD00090E09093E4048093E30480E290E090939A
:101CE0000205809301058AE795E00E94A900809192
:101CF000030580FF2FC129E030E03093E2042093F8
:101D0000E10480628093030525C19095291310C0DA
:101D100030E03093E4042093E304982F9095691306
:101D20000CC088E090E09093E2048093E104D5CF6A
:101D30005093E4044093E304F0CFEAE0F0E0F09342
:101D4000E204E093E1046093E5048093E604C5CFE8
:101D500080910405843609F08DC088EC91E00E94E2
:101D6000E305882309F486C043E060E188EC91E054
:101D70000E94CB05882309F47DC0F090E904AF2CC4
:101D8000B090EA040BE010E0F2E0AF16F0E2BF061C
:101D9000F1F00EE010E02AEAA2162AE5B206B9F048
:101DA0000DE010E034E5A31632E3B30681F00FE056
:101DB00010E053E0A51651E0B50649F000E110E04F
:101DC00063E2A6166BECB60611F00CE010E043E2FD
:101DD00060E288EC91E00E94CB05882309F44AC0B8
:101DE000FB248091E9049091EA04A091EB04B09166
:101DF000EC049C0164E0369527956A95E1F73093F1
:101E0000E4042093E3042A2F30E03093E604209387
:101E1000E504382F3A2739272F2D22952F702F25AB
:101E20002F70482F4F70241719F024E020930305DA
:101E30000C30110549F4209103052061209303051E
:101E4000B092E804A092E7043B1729F080910305C3
:101E500084608093030580E390E090930205809373
:101E600001051093E2040093E1048AE397E00E94E5
:101E7000A90070C080910405803209F0DCC141E006
:101E80006FE084EB91E00E94CB05882309F4D3C175
:101E9000E0910705F0910805E75BFF4F8081918194
:101EA0000497059708F0C7C18091E9049091EA046E
:101EB000A091EB04B091EC049C012F713327309377
:101EC000E4042093E30455E0B695A795979587958C
:101ED0005A95D1F7492F43709C0133273093E6047C
:101EE0002093E50420910505309106052536344000
:101EF00008F099C1209113052F5F2093130522301C
:101F000018F021E02093030590FF14C020910305F1
:101F1000322F32603093030530910F055091100538
:101F20008095831719F02660209303053093E5040C
:101F30005093E6044150423008F07AC186E190E0C7
:101F40009093E2048093E1048FE090E09093020587
:101F5000809301058091E5049091E6048634910513
:101F600009F41FC78734910509F42AC78534910500
:101F700081F48FE090E09093F4018093F30181E08D
:101F800090E09093F2018093F1018AE990E00E9441
:101F90003A078091E003833011F41092E003ECEBF8
:101FA000F0E08491EEEEF0E01491EAEDF0E00491BF
:101FB000002309F414C781110E943F01E02FF0E0D3
:101FC000EE0FFF1FE753FF4FA591B491EC911E2335
:101FD00009F405C7109202038091FF02909100035B
:101FE0002091F001222309F414C70A96909300036C
:101FF0008093FF028A35910514F01092F001A091B0
:10200000FF02B0910003A03292E0B907DCF58091A5
:10201000D804E8E88E2E912C881A910887FD9394B5
:10202000880C991C880C991C092C000CAA08BB0868
:102030008091D90428E532E0281B310987FD3395CA
:10204000220F331F220F331F032E000C440B550B9E
:10205000281939094A095B09A53BB10514F0A4EB1D
:10206000B0E0B7FF02C0B0E0A0E00E94B41724EBDC
:1020700030E040E050E00E948A17820E931EA41EBA
:10208000B51ED401E091D704EC3080F52091D8043E
:1020900088E890E0821B910927FD9395880F991F8E
:1020A000880F991FA817B90784F02091D90488E5F3
:1020B00092E0821B910927FD9395880F991F880F45
:1020C000991FA817B9070CF4CD010297880F991F23
:1020D0004FB7F8942E2F30E0F901EE0FFF1FE20FFB
:1020E000F31FE554FC4F928381834FBF8091F10130
:1020F0009091F2011CAA1BAA1EAA1DAA18AE1FAA23
:102100004AE0B6010E942317F60101900020E9F78A
:102110003197AF014C195D09B601CE01C3960E94FB
:102120008E071AAE19AE1CAE1BAE1EAE1DAE46E03B
:1021300050E06CE372E0CE01C9960E948E07ABA816
:10214000BCA8A114B10409F471C60FA918AD0115FA
:102150001105B9F08DAD9EAD080F191FB801CE0164
:10216000C9960E946607882309F460C629AD3AAD76
:102170008DAD9EADB501820F931F0E94131A1EAF45
:102180000DAF1A8219821C821B821E821D8269ADCC
:102190007AAD6115710529F04DAD5EADC6010E94A5
:1021A0008E0740E061E08BEC94E00E941D078BE31A
:1021B0009FE10197F1F740E060E88BEC94E00E942A
:1021C0001D074D815E8169817A818BEC94E00E94CC
:1021D0002C0288E08093D60460E08BEC94E00E94AF
:1021E0002604C6010E945E07CE01C9960E945E07C2
:1021F000CE01C3960E945E076091F3017091F401D5
:10220000072E000C880B990B0E94F70180E090E0EC
:10221000892B09F4A4CC0E949602882309F49FCC50
:102220000E9400009CCC10921305423009F486CE27
:1022300084E090E085CE80EA91E00E94E305882367
:1022400009F448C0809104058A3129F08A3219F0D6
:10225000803209F03FC090E0BC016150710977FD08
:10226000BC017595679543E080EA91E00E94CB053B
:10227000882381F18091E9049091EA04A091EB0414
:10228000B091EC049C012F7733273093E604209320
:10229000E50437E0B695A795979587953A95D1F7D8
:1022A0009093E4048093E3042091040530E0C90195
:1022B000019797FDC90195958795909302058093A5
:1022C000010587E190E09093E2048093E10480EEC1
:1022D00091E0CDCD81E08093110389E793E0909365
:1022E0000F0380930E03109210030E94B8008130F8
:1022F00009F060C0812C912C540110E090910405EC
:10230000809111038917E0F40E94B800082F0E9401
:10231000B80001110BC0813009F04CC0880C991C29
:10232000AA1CBB1C689480F81F5FE8CF013009F03D
:1023300041C081113FC0880C991CAA1CBB1CF4CF62
:10234000812F90E090930205809301058092E9042B
:102350009092EA04A092EB04B092EC04882D8F7363
:1023600090E09093E6048093E504940116E036959E
:1023700027951A95E1F72F7133273093E4042093C2
:10238000E304940122273071232B31F4805C9F4FAA
:102390009093E6048093E50480E893FC88E88093BA
:1023A000030581E190E09093E2048093E1048FECD7
:1023B00099E05DCDE0910705F0910805858596854A
:1023C00088974D9708F042C0878590890C970B97A6
:1023D000E8F583E0809311038CEB91E090930F0379
:1023E00080930E03109210030E94B800813071F5A3
:1023F0000E94B80081112AC0812C912C540110E058
:102400009091040580911103891708F07AC00E9409
:10241000B800F82E1330B1F00E94B800082F133026
:1024200021F40E94B800081311C0F1E0FF125FC050
:1024300001110CC0880C991CAA1CBB1C689480F864
:102440001F5FDECF0E94B800F81631F3209104051B
:102450002C3311F02430B9F4E0910705F091080510
:10246000858596858638910570F0833E910508F440
:1024700092C08E58910968EB7BE007E010E082364D
:10248000910508F48CC080910405823209F4ECC0F7
:10249000843209F019C184E191E00E94E3058823A8
:1024A00009F412C143E060E184E191E00E94CB05B0
:1024B000882309F409C18091E9049091EA04A0916C
:1024C000EB04B091EC04492F5A2F6B2F77275093D0
:1024D000E6044093E50499279093E4048093E30491
:1024E00080E190E09093020580930105EAC0F1102D
:1024F000ADCF013009F0AACF880C991CAA1CBB1CD7
:102500009FCF812F90E090930205809301058092E8
:10251000E9049092EA04A092EB04B092EC04282D16
:1025200030E0892D143220F580E880930305309344
:10253000E6042093E504892D90E09093E4048093D1
:10254000E304A0FE03C088E880930305153128F05A
:102550008091030580618093030583E79AE00E94E0
:10256000A90082E190E09093E2048093E104F2CC30
:1025700090E89093030597FE03C098E890930305B5
:102580003093E6042093E5048F7790E09093E40481
:102590008093E304E2CF68E670E106E010E087850F
:1025A0009089243061F44D97469708F06CCF81896B
:1025B00092890797089708F066CF81E823CB0E949D
:1025C0001005882309F45FCF43E06CE180E091E0DF
:1025D0000E94CB05882309F456CF80E88093030539
:1025E0008091E9049091EA04A091EB04B091EC048D
:1025F000AC01BD01E4E07695679557954795EA955E
:10260000D1F79A015093E6044093E504AC01BD0173
:10261000F4E17695679557954795FA95D1F75093DC
:10262000E4044093E30444E050E060E0722F7F70E4
:10263000670F74E0369527957A95E1F74150510977
:10264000A9F786278F709927AA27BB27892B8A2B62
:102650008B2B19F084E8809303051093E204009318
:10266000E1048CE190E072CC809105059091060523
:102670008C3E9C4508F06ECCE0910705F091080572
:10268000858596850897079708F064CCE35BFF4F34
:10269000808191810897079708F05CCC81E0809356
:1026A000030580910B0590910C059093E4048093B1
:1026B000E30480910F05909110059093E6048093B8
:1026C000E50485E090E04FCF10910405812F8F7DC8
:1026D000843419F0163009F081C088E291E00E943C
:1026E000E305882309F47AC01630B1F481E28093BF
:1026F000030580910B0590910C059093E404809361
:10270000E30480910F05909110059093E604809367
:10271000E50484E190E027CF43E060E288E291E0C5
:102720000E94CB05882309F459C08091E9041091D7
:10273000EB040091EC049091EA048093E3049093FD
:10274000E40490910405943659F543E460E188E28D
:1027500091E00E94CB05882309F440C08091E904F0
:102760009091EA040095101731F09095891719F0AF
:1027700094E090930305982F812F9093E604809323
:10278000E50480E390E0909302058093010585E1E4
:1027900090E09093E2048093E1048EEB9AE067CBA3
:1027A000902F9095191314C0212F30E03093E60438
:1027B0002093E50490E09093E4048093E30480E2A6
:1027C00090E0909302058093010583E190E0E1CFD2
:1027D000C8019093E5048093E604F1CF809104054D
:1027E000843279F58CE391E00E94E305882349F176
:1027F00043E060E18CE391E00E94CB05882309F17E
:102800001091E9048091EA048095181719F084E08A
:10281000809303058DE692E00E94A900812F90E04D
:102820009093E6048093E5041092E4041092E3048C
:1028300080E190E090930205809301058DE190E0A6
:1028400092CE809104058434D1F480E591E00E9419
:10285000E3058823A1F043E060E280E591E00E9477
:10286000CB05882361F080E88093030580E290E047
:1028700090930205809301058CE190E074CE84E68C
:1028800091E00E94E305882309F45CC0E09107050C
:10289000F09108058285843209F054C043E060E17C
:1028A00084E691E00E94CB05882309F44BC0E091B7
:1028B0000705F0910805EF5AFF4F8081918102973B
:1028C000049708F03FC080E8809303053091E90445
:1028D0002091EA04832F922F422F42954F702F7040
:1028E000A4E096958795AA95E1F78F703F709FE0D9
:1028F000942792279827391719F094E890930305A5
:102900006091050570910605683F714128F490912A
:1029100003059260909303054093E3041092E4044E
:1029200050E1259F90011124282B3093E604209339
:10293000E50480E190E090930205809301058AE12F
:1029400090E011CE88E791E00E94E30590910405A4
:10295000882381F1943271F543E060E188E791E0EA
:102960000E94CB05882331F1E0910705F09108051D
:10297000EF5AFF4F8081918108970797D8F4809193
:10298000E9049091EA0498279F3FA1F490E0909386
:10299000E6048093E50480E190E090930205809343
:1029A000010589E190E09093E2048093E10488EDD1
:1029B00094E05DCA80910405803709F057C041E07A
:1029C00068E08CE891E00E94CB05882309F44EC0B2
:1029D0008091E9049091EA04A091EB04B091EC0499
:1029E000892B8A2B8B2B09F041C041E16FE18CE8E8
:1029F00091E00E94CB058823C9F18090E904909072
:102A0000EA04A090EB04B090EC044FE461E18CE8A0
:102A100091E00E94CB05882349F19091EA048091CE
:102A2000EB048927982789279093E6048093E5048F
:102A30008092E9049092EA04A092EB04B092EC0434
:102A40009092E4048092E304B092E804A092E70438
:102A50008BE190E09093E2048093E10488E390E0BE
:102A6000909302058093010580E84CC920910405EC
:102A7000243108F430C182E3F60111928A95E9F716
:102A8000409107055091080573E060E02250330B38
:102A9000872F90E082179307BCF4880F991FFA01E3
:102AA000E80FF91F838594858233910508F013C1DF
:102AB000F601E80FF91FA081AF5FA0836817190620
:102AC00008F4682F7E5FE4CF21961FAE21971FAEDA
:102AD0009E01215C3F4FAE01405C5F4FC6010E94EA
:102AE0002C0B882309F4F7C082E3F60111928A9532
:102AF000E9F7209104052250330B409107055091CE
:102B0000080574E060E0872F90E082179307BCF41B
:102B1000880F991FFA01E80FF91F83859485823386
:102B2000910508F0D8C0F601E80FF91FA081AF5F4A
:102B3000A0836817190608F4682F7E5FE4CF19AEEA
:102B40001BAA9E012D5C3F4FAE01475C5F4FC60143
:102B50000E942C0B882309F4BEC080910405869541
:102B6000FF24FA94F80EABA86FACAA2029F06110EC
:102B700003C03EEFF32EF80E2F2D30E03093020508
:102B800020930105C901019797FD4F9625E0959582
:102B900087952A95E1F722968FAF2297611003C09F
:102BA000AA2009F498C049AC82E3489E2001112470
:102BB00021968FAC2197889E40011124689E300198
:102BC0001124A89E5001112483E0282E312C8F2D32
:102BD000F0E2FF1508F480E29FAD992309F467C085
:102BE00021E030E03093E2042093E104E12C820103
:102BF0009401A301622D0E942905882309F46BC06A
:102C000024E0329EF0011124E750FB4F8091E9044B
:102C10009091EA04A091EB04B091EC04808391833D
:102C2000A283B38330E4230E50EEF50E3394229644
:102C30006FAD2297631558F680ED97E00E94A900CA
:102C4000E0910705F09108054585568582E3849F4C
:102C50009001859F300D11243093EE042093ED04F4
:102C600047855089849F9001859F300D11243093B2
:102C7000F0042093EF049092F6048092F5045092B1
:102C8000F8044092F70461147104E1F07092F204C8
:102C90006092F1045092F4044092F304A114B10440
:102CA00009F458C9B092F804A092F70453C9E2E0BD
:102CB000F0E0F093E204E093E104E12C850194015B
:102CC000A40198CF9092F2048092F104B092F4049F
:102CD000A092F3043FC980910405863008F43AC9F4
:102CE000809007059090080511E025EC3DE94CE146
:102CF00051E8A82EB12C812F90E0BC016E5F7F4F70
:102D00006A157B05DCF5660F771FF401E60FF71FE8
:102D100063847484880F991FF401E80FF91F838579
:102D20009485EAE0E69DD001E79DB00D1124FC01F9
:102D300003E0EE0FFF1F0A95E1F7AE17BF0790F013
:102D4000FAE0F89FB001F99F700D1124C301E3E090
:102D5000880F991FEA95E1F7E2E06817790718F004
:102D6000E1E001C0E0E063E971E080E091E00E9411
:102D700058179B01AC012E271F5FBDCF2093E9049C
:102D80003093EA044093EB045093EC0480E290E02B
:102D900090930205809301051092E2041092E104E1
:102DA000D9C82AE030E03093F4012093F30182E0A7
:102DB00090E09093F2018093F10183E990E0E7C8FD
:102DC00085E090E09093F4018093F30183E090E03C
:102DD0009093F2018093F1018CE890E0D8C8809143
:102DE00002038111F9C88DE790E00E943A076091D3
:102DF000010311E061276093010382E00E946801F2
:102E00001093020362E370E080E090E00E94F7011B
:102E1000E3C80A97909300038093FF0218161906DF
:102E20000CF4EDC881E08093F001E9C889AD9AAD5A
:102E3000009711F00E94C4181AAE19AE1EAE1DAE56
:102E40001CAE1BAE9EC9BB274A3031F4992322F435
:102E5000BDE2909581959F4F0C942F17BB27FB01E6
:102E60005527AA27880F991FAA1FA41710F0A41B83
:102E700083955051B9F7A05DAA3308F0A95DA193DD
:102E8000009779F7B111B1931192CB010C944817C7
:102E9000DC01FC01672F71917723E1F7329704C0C1
:102EA0007C916D9370836291AE17BF07C8F308954C
:102EB000DB018F939F930E94A917BF91AF91A29FAF
:102EC000800D911DA39F900DB29F900D1124089528
:102ED000A1E21A2EAA1BBB1BFD010DC0AA1FBB1F1E
:102EE000EE1FFF1FA217B307E407F50720F0A21B90
:102EF000B30BE40BF50B661F771F881F991F1A94FD
:102F000069F760957095809590959B01AC01BD0126
:102F1000CF010895052E97FB1EF400940E94A1177F
:102F200057FD07D00E94681707FC03D04EF40C949D
:102F3000A11750954095309521953F4F4F4F5F4FCA
:102F4000089590958095709561957F4F8F4F9F4F15
:102F500008950E94F317A59F900DB49F900DA49F14
:102F6000800D911D11240895B7FF0C94A9170E949C
:102F7000A917821B930B08952F923F924F925F9255
:102F80006F927F928F929F92AF92BF92CF92DF9279
:102F9000EF92FF920F931F93CF93DF93CDB7DEB7DE
:102FA000CA1BDB0B0FB6F894DEBF0FBECDBF099472
:102FB0002A88398848885F846E847D848C849B84C9
:102FC000AA84B984C884DF80EE80FD800C811B81D7
:102FD000AA81B981CE0FD11D0FB6F894DEBF0FBE06
:102FE000CDBFED010895A29FB001B39FC001A39F83
:102FF000700D811D1124911DB29F700D811D112432
:10300000911D0895991B79E004C0991F961708F047
:10301000961B881F7A95C9F780950895AA1BBB1B3C
:1030200051E107C0AA1FBB1FA617B70710F0A61BC8
:10303000B70B881F991F5A95A9F780959095BC01E9
:10304000CD010895EE0FFF1F0590F491E02D099436
:103050000F931F93CF93DF938230910510F482E09A
:1030600090E0E0911605F091170530E020E0B0E027
:10307000A0E0309799F42115310509F44AC0281BC6
:10308000390B24303105D8F58A819B816115710592
:1030900089F1FB0193838283FE0111C0408151813C
:1030A0000281138148175907E0F04817590799F42E
:1030B000109761F012960C93129713961C93329608
:1030C000CF01DF91CF911F910F91089500931605C5
:1030D00010931705F4CF2115310551F0421753070E
:1030E00038F0A901DB019A01BD01DF01F801C1CF70
:1030F000EF01F9CF9093170580931605CDCFFE0110
:10310000E20FF31F81939193225031093983288371
:10311000D7CF2091140530911505232B41F4209130
:10312000F7013091F8013093150520931405209193
:10313000F5013091F6012115310541F42DB73EB767
:103140004091F9015091FA01241B350BE0911405CF
:10315000F0911505E217F307A0F42E1B3F0B28177B
:10316000390778F0AC014E5F5F4F2417350748F000
:103170004E0F5F1F50931505409314058193919353
:103180009FCFF0E0E0E09CCFCF93DF930097E9F092
:10319000FC01329713821282A0911605B091170597
:1031A000ED0130E020E01097A1F420813181820F01
:1031B000931F20911405309115052817390709F040
:1031C00061C0F0931505E0931405DF91CF91089548
:1031D000EA01CE17DF07E8F54A815B819E014115C0
:1031E0005105B1F7E901FB83EA8349915991C40F75
:1031F000D51FEC17FD0761F4808191810296840F41
:10320000951FE90199838883828193819B838A83B7
:10321000F0E0E0E012968D919C9113970097B9F53C
:103220002D913C911197CD010296820F931F209111
:103230001405309115052817390739F6309751F5DF
:103240001092170510921605B0931505A09314055A
:10325000BCCFD383C28340815181840F951FC8178F
:10326000D90761F44E5F5F4F88819981480F591FDC
:10327000518340838A819B81938382832115310509
:1032800009F0B0CFF0931705E09316059ECFFD012E
:10329000DC01C0CF13821282D7CFB0E0A0E0E3E51B
:1032A000F9E10C94BE178C01009751F4CB010E94F8
:1032B00028188C01C801CDB7DEB7E0E10C94DA170D
:1032C000FC01E60FF71F9C0122503109E217F307BA
:1032D00008F49DC0D901CD91DC911197C617D7078D
:1032E00098F0C530D10530F3CE01049786179707C3
:1032F00008F3C61BD70B2297C193D1936D937C9390
:10330000CF010E94C418D6CF5B01AC1ABD0A4C0194
:103310008C0E9D1EA0911605B0911705512C412CC5
:10332000F12CE12C109731F5809114059091150541
:103330008815990509F05CC04616570608F058C074
:103340008091F5019091F601009741F48DB79EB7F9
:103350004091F9015091FA01841B950BE817F90788
:1033600008F055C0F0931505E0931405F901718339
:103370006083A0CF8D919C91119712966C901297BB
:1033800013967C901397A815B90559F56C0142E086
:10339000C40ED11CCA14DB0420F1AC014A195B092C
:1033A000DA011296159780F062827382518340830E
:1033B000D9016D937C93E114F10471F0D701139658
:1033C000FC93EE93129776CF22968C0F9D1FF901F6
:1033D00091838083F301EFCFF0931705E0931605F7
:1033E00069CF4816590608F42C017D01D3019ACF04
:1033F000CB010E9428187C01009749F0AE01B8016A
:103400000E940A1AC8010E94C418870153CF10E015
:1034100000E050CFFB01DC0102C001900D92415051
:103420005040D8F70895FB01DC0101900D92002077
:10343000E1F70895F894FFCF06002628236810F4DA
:10344000012C06F4012602806E00CF06050026E05E
:103450002070100E022A060E020E0200410000002B
:1034600013002680118011300290063002300200D5
:103470006E0000001D002638081C040E022A060EED
:10348000020E0200320000001C0026220B220BEE6E
:10349000026608EE02EE02806E0000001A00269E10
:1034A0000002049E0029029E000701006E00000039
:1034B000190026F603BC050802BC050802D4010069
:1034C0004B0000001B00261F015D033E023E021F51
:1034D000015D03806E00000017002860095802B0EB
:1034E00004580258025802002D000000040026046F
:1034F000010C0304011C0704010C03006E00000012
:103500000C0025800DC006B0011005B001B001000F
:10351000820000000800260023801130029006304F
:10352000023002006E00CF060101000F00000018FB
:1035300005800000000000CC022C02590219038A09
:103540000268027C0200000000F703CA030D05A018
:1035500003C303B003A1030000000034072C020DD5
:103560000539030D0A00536572766F20436F6E7440
:0C357000726F6C006D6F64653A20000003
:107E0000112484B714BE81FFF0D085E080938100F7
:107E100082E08093C00088E18093C10086E0809377
:107E2000C20080E18093C4008EE0C9D0259A86E02C
:107E300020E33CEF91E0309385002093840096BBD3
:107E4000B09BFECF1D9AA8958150A9F7CC24DD24C4
:107E500088248394B5E0AB2EA1E19A2EF3E0BF2EE7
:107E6000A2D0813461F49FD0082FAFD0023811F036
:107E7000013811F484E001C083E08DD089C08234E0
:107E800011F484E103C0853419F485E0A6D080C0E4
:107E9000853579F488D0E82EFF2485D0082F10E0AE
:107EA000102F00270E291F29000F111F8ED06801E7
:107EB0006FC0863521F484E090D080E0DECF843638
:107EC00009F040C070D06FD0082F6DD080E0C81688
:107ED00080E7D80618F4F601B7BEE895C0E0D1E017
:107EE00062D089930C17E1F7F0E0CF16F0E7DF06D8
:107EF00018F0F601B7BEE89568D007B600FCFDCFD4
:107F0000A601A0E0B1E02C9130E011968C91119780
:107F100090E0982F8827822B932B1296FA010C0160
:107F200087BEE89511244E5F5F4FF1E0A038BF0790
:107F300051F7F601A7BEE89507B600FCFDCF97BE46
:107F4000E89526C08437B1F42ED02DD0F82E2BD052
:107F50003CD0F601EF2C8F010F5F1F4F84911BD097
:107F6000EA94F801C1F70894C11CD11CFA94CF0C13
:107F7000D11C0EC0853739F428D08EE10CD085E9AC
:107F80000AD08FE07ACF813511F488E018D01DD067
:107F900080E101D065CF982F8091C00085FFFCCF94
:107FA0009093C60008958091C00087FFFCCF809118
:107FB000C00084FD01C0A8958091C6000895E0E648
:107FC000F0E098E1908380830895EDDF803219F02E
:107FD00088E0F5DFFFCF84E1DECF1F93182FE3DFCA
:107FE0001150E9F7F2DF1F91089580E0E8DFEE27F6
:047FF000FF270994CA
:027FFE00040479
:00000001FF
